:020000020000FC
:100000000C9436000F9303E30093C4000F910F93F9
:1000100000E00093C5000F910F9302E20093C0002F
:100020000F910F9308E10093C1000F910F930EE021
:100030000093C2000F9108950F9303EE00937C008C
:100040000F910F9307E800937A000F9108950F9393
:1000500007EC00937A000F9108950F930091C00070
:1000600005FFFCCF1093C6000F910895569A579A3A
:100070000E9402000E941C000000000000005E9828
:100080005F980091C00007FF0C9441000091C600EA
:100090000B3211F00C9441005E9A5F980091C00001
:1000A00007FF0C9457000091C6000D3241F30E94E7
:1000B000270010917A0016FD0C94570010917900DA
:1000C0000E942D00143710F40C944E005F9A00919A
:1000D000C00007FF0C9470000091C6000D3279F249
:1000E0000E94270010917A0016FD0C947000109168
:1000F00079000E942D001D3578F271F20C94670092
:00000001FF
