:020000020000FC
:100000000C9445000F931F9300E0FF93EF930F9321
:10001000E00F00E0F01F14910F91EF91FF9110306D
:1000200029F00E94330003950C9405001F910F9155
:1000300008950F930FEC0093C4000F910F9300E00D
:100040000093C5000F910F9302E20093C0000F913F
:100050000F9308E10093C1000F910F9306E0009306
:10006000C2000F9108950F930091C00005FFFCCFCF
:100070001093C6000F9108950F930091C00007FFE1
:10008000FCCF1091C6000F9108950E941900000046
:1000900000000000EF93FF93F1E0E4E40E9402000F
:1000A000FF91EF910F9320E00091C00007FF0C94A7
:1000B0005D000091C6000B3261F023952A3099F360
:1000C0000C9454001F93122F0E9433001F910C9424
:1000D00053000F91EF93FF93F1E0E4E60E940200DA
:1000E000FF91EF911F930E943C001033E0F319330E
:1000F00018F011F00C94730010531217B9F014F0AB
:100100000C948C00EF93FF93F1E0E8EA0E94020068
:10011000FF91EF910C947300EF93FF93F1E0E0EC0B
:100120000E940200FF91EF910C947300EF93FF93F4
:10013000F1E0E8ED0E940200FF91EF911F910C9415
:100140004A00FFCF0A446967697465202B207061FB
:10015000726120696E6963696172206F206A6F67DE
:100160006F0A00004A6F676F20696E696369616496
:100170006F212054656E74652061646976696E68CC
:100180006172206F206EFA6D65726F207175652047
:10019000666F6920736F72746561646F2064652097
:1001A00030206120392E0A0054656E746520756D0B
:1001B000206EFA6D65726F206D61696F72210A00A1
:1001C00054656E746520756D206EFA6D65726F20D2
:1001D0006D656E6F72210A005061726162E96E7323
:1001E0002120566F63EA2061636572746F752E0A71
:0201F00000000D
:00000001FF
