:020000020000FC
:0200000082C0BC
:100040000F930FB70F9303E806BD3A95303009F0D0
:1000500011C035E073957A3068F070E063956A30CE
:1000600048F060E053955A3028F050E04395463010
:1000700008F040E00F910FBF0F911895509A519AD8
:10008000529A539A549A559A569A579A209A219A64
:10009000229A239A2498259835E070E060E050E099
:1000A00040E0089500E004BD03E806BD01E00093D0
:1000B0006E00089504E005BD7894089500E005BD44
:1000C0001F9311E0103029F01A950AEF0E946B007F
:1000D000F9CF1F9108950F930000013069F00A9540
:1000E0000000000000000000000000000000000010
:1000F000000000000000F1CF0F9108953F065B4F14
:10010000666D7D077F6F0E943E000E9452001D9B1E
:100110000C948C000E945E001C9B0C9491000E9429
:100120005A002B9AEF93FF930F93F0E0ECEF072F19
:10013000FF93EF930F93E00F00E0F01F14910F91E6
:10014000EF91FF910F91FF91EF911BB95F9A0E9480
:1001500060002B985F982A9AEF93FF930F93F0E03B
:10016000ECEF062FFF93EF930F93E00F00E0F01FEB
:1001700014910F91EF91FF910F91FF91EF911BB9A6
:100180000E9460002A98299AEF93FF930F93F0E062
:10019000ECEF052FFF93EF930F93E00F00E0F01FBC
:1001A00014910F91EF91FF910F91FF91EF911BB976
:1001B0005F9A0E94600029985F98289AEF93FF93B6
:1001C0000F93F0E0ECEF042FFF93EF930F93E00F0A
:1001D00000E0F01F14910F91EF91FF910F91FF91AB
:0E01E000EF911BB90E94600028980C948700D4
:00000001FF
